:020000040800F2
:10000000880600208901000843060008B905000899
:100010004106000843020008E50700080000000050
:100020000000000000000000000000005107000870
:1000300045020008000000004506000853070008BC
:10004000A3010008A3010008A3010008A301000800
:10005000A3010008A3010008A3010008A3010008F0
:10006000A3010008A3010008A3010008A3010008E0
:10007000A3010008A3010008A3010008A3010008D0
:10008000A3010008A3010008A3010008A3010008C0
:10009000A3010008A3010008A3010008A3010008B0
:1000A000A3010008A3010008A3010008A3010008A0
:1000B000A3010008A3010008A3010008A301000890
:1000C000A3010008A3010008A3010008A301000880
:1000D000A3010008A3010008A3010008A301000870
:1000E000A3010008A3010008A301000800F002F822
:1000F00000F03AF80AA090E8000C82448344AAF188
:100100000107DA4501D100F02FF8AFF2090EBAE885
:100110000F0013F0010F18BFFB1A43F0010318473B
:100120005807000078070000103A24BF78C878C14B
:10013000FAD8520724BF30C830C144BF04680C60ED
:10014000704700000023002400250026103A28BF35
:1001500078C1FBD8520728BF30C148BF0B60704739
:100160001FB51FBD10B510BD00F031F81146FFF7E7
:10017000F7FF00F049FB00F04FF803B4FFF7F2FF80
:1001800003BC00F057F800000948804709480047C1
:10019000FEE7FEE7FEE7FEE7FEE7FEE7FEE7FEE737
:1001A000FEE7FEE704480549054A064B7047000094
:1001B00057070008ED00000888000020880600208E
:1001C00088020020880200207047704770477546FB
:1001D00000F02CF8AE4605006946534620F00700B3
:1001E000854618B020B5FFF7DDFFBDE820404FF091
:1001F00000064FF000074FF000084FF0000B21F011
:100200000701AC46ACE8C009ACE8C009ACE8C009DD
:10021000ACE8C0098D46704710B50446AFF30080C6
:100220002046BDE81040FFF7A8BF00000048704717
:100230002800002001491820ABBEFEE7260002007E
:100240007047FEE77047000070B5044600F010F9F3
:100250000546601C02D004480078044400F008F908
:10026000401BA042FAD370BD180000202DE9F84FC2
:10027000DFF8B8910024A9F1040B23460F2709F1F8
:10028000040AABF1040EC9E00125A5402A40AA42A8
:100290007DD1674ED1F804C0ACEB0608B44532D02E
:1002A00014DCBCF1030F3AD009DCBCF1000F2AD0FA
:1002B000BCF1010F1CD0BCF1020F31D11DE0BCF12B
:1002C000110F17D0BCF1120F2AD119E0B8F5881F11
:1002D00019D006DCB8F5803F15D0B8F5801F1FD1C6
:1002E00011E0B8F5001F0ED0B8F5041F18D10AE0D0
:1002F000CB6815E0CB681B1D12E0CB6808330FE01C
:10030000CB680C330CE08B682BB1012B4FF008034A
:1003100003D0456104E0042302E0056100E000230E
:10032000FF2A01D8064601E000F104064FEA8405E1
:1003300001D9A5F12005D6F8008007FA05FC28EAC6
:100340000C0803FA05F548EA0508C6F800804D6870
:10035000ED0062D5374DAE6946F00106AE61AD697C
:1003600024F0030605F001050095334D06EB050C5E
:10037000DCF80850A607360F07FA06F825EA080544
:10038000DFF8B880404503D14FF0000817E044E0A3
:10039000DFF8AC80404502D14FF001080FE0DFF8F4
:1003A000A480404502D14FF0020808E0DFF89880B1
:1003B000404502D14FF0030801E04FF0040808FA6D
:1003C00006F848EA0508CCF808804D68D9F80060BE
:1003D000ED024D4601D5164300E096432E604D6870
:1003E000DAF80060AD02554601D5164300E09643A9
:1003F0002E604D68DBF80060AD035D4601D5164305
:1004000000E096432E604D68DEF80060ED0375460F
:1004100001D5164300E096432E60641C0D682A4601
:10042000E5407FF431AFBDE8F88F000008040140DB
:1004300000001110001002400000014000080140BF
:10044000000C014000100140001401408068084089
:1004500000D001207047C26821EA02030A4043EA43
:100460000241016170470AB1016170470904FBE76D
:100470000148806870470000180000200248816829
:10048000027811448160704718000020074810B5B9
:10049000016841F010010160032000F067F80F20AF
:1004A00000F006F800F024F8002010BD0020024003
:1004B00070B50D4D04464FF47A712878B1FBF0F019
:1004C0000A490968B1FBF0F000F062F848B9102C55
:1004D00007D200222146501E00F028F800206C6050
:1004E00070BD012070BD0000180000202400002015
:1004F0000C4808B5816941F001018161816901F011
:1005000001010091C16941F08051C161C06900F0F1
:10051000805000900448416821F0E06141F0007192
:10052000416008BD0010024000000140F0B40E4BD5
:100530001B680C46C3F30223C3F10705042D00D941
:100540000425191D072901D2002300E0DB1E012626
:1005500006FA05F1491E214099409E40761E16403C
:100560003143F0BC00F03FB90CED00E0064900F06B
:10057000070208684FF6FF03184040EA0220034ACA
:1005800010430860704700000CED00E00000FA0521
:1005900010B5401EB0F1807F01D3012010BD4FF097
:1005A000E02460610F21601700F01DF90020A061B8
:1005B00007202061002010BDFEE70000F0B585B0E7
:1005C00000241C4801940394816941F02001816159
:1005D000816901F020010491816941F00401816188
:1005E000816901F004010491816941F00801816190
:1005F0008069012500F008000490242000906946DD
:1006000002950D48FFF732FE70200226CDE9000565
:100610000A4FCDE9024669463846FFF727FE082013
:10062000CDE90005CDE9024669463846FFF71EFED2
:1006300005B0F0BD0010024000080140000C014070
:10064000FEE7FEE7704700002DE9F0412048202733
:1006500006463946FFF7FAFE1E4C012538B90A2036
:10066000FFF7F2FD39463046FFF7F0FEA8B1E0781B
:100670000026002818D0E670FFF7FAFEA168401A9D
:1006800040F20B31153888420ED22078022168B131
:1006900001280DD002280DD00DE0E078002803D10C
:1006A000E570FFF7E5FEA060BDE8F081257002E08F
:1006B000217000E02670607828B1012805D002285A
:1006C000F2D16670F0E76570EEE76170ECE700006C
:1006D000000801400000002070B51B4E0421304688
:1006E000FFF7B4FE194C012508B9207930B1042177
:1006F0003046FFF7ABFE01280ED013E01420FFF7C1
:10070000A3FD04213046FFF7A1FE002803D1257187
:10071000FFF7AEFEE06070BD207918B100202071B7
:10072000A07070BD04213046FFF790FE0028F8D17C
:1007300020790028F5D0FFF79BFEE168401AB0F55C
:100740007A7FEED3A57070BD000801400000002044
:100750007047FFF793BE704770B5204D00222021EF
:100760002846FFF780FE002240212846FFF77BFE47
:10077000002210212846FFF776FE194CA0780128A8
:100780001ED02078E0B101281CD0022824D1FFF728
:100790006FFE4FF4FA61B0FBF1F201FB12014FF46E
:1007A0007A72914201D3C1F5FA6164235943B1FBD6
:1007B000F2F12269821A0A2A0ED32061322904D961
:1007C000012203E00122402101E0002220212846ED
:1007D000BDE87040FFF747BE70BD0000000C01404F
:1007E00000000020FEE70907090E002804DB00F1E5
:1007F000E02080F80014704700F00F0000F1E020C6
:1008000080F8141D70470000FFF740FEFFF7D6FE8A
:10081000174D002208212846FFF725FE154C4FF4FE
:10082000FA7600BFFFF710FFFFF756FFFFF794FFC0
:10083000617821B1012904D0022908D014E00022F6
:1008400000E0012208212846FFF70DFE0CE0FFF72B
:100850000FFE6169401AB04206D3FFF709FE6061DE
:1008600008212846FFF7F7FD0A20FFF7EDFCD9E73E
:10087000000C014000000020980800080000002043
:100880002800000028010008C008000828000020F7
:1008900060060000440100080000000000000000A5
:1008A0000000000000000000000000000000000048
:1008B00001000000100000000000000000127A009B
:04000005080000ED02
:00000001FF
